{
  "address": "0xe9CF6576e35906c3683a038296C40663fFc8c81B",
  "abi": [
    {
      "inputs": [
        {
          "internalType": "address",
          "name": "chocomintERC721Address",
          "type": "address"
        },
        {
          "internalType": "address",
          "name": "owner",
          "type": "address"
        },
        {
          "internalType": "address",
          "name": "imx",
          "type": "address"
        }
      ],
      "stateMutability": "nonpayable",
      "type": "constructor"
    },
    {
      "anonymous": false,
      "inputs": [
        {
          "indexed": false,
          "internalType": "address",
          "name": "to",
          "type": "address"
        },
        {
          "indexed": false,
          "internalType": "uint256",
          "name": "id",
          "type": "uint256"
        },
        {
          "indexed": false,
          "internalType": "bytes",
          "name": "blueprint",
          "type": "bytes"
        }
      ],
      "name": "AssetMinted",
      "type": "event"
    },
    {
      "anonymous": false,
      "inputs": [
        {
          "indexed": true,
          "internalType": "address",
          "name": "previousOwner",
          "type": "address"
        },
        {
          "indexed": true,
          "internalType": "address",
          "name": "newOwner",
          "type": "address"
        }
      ],
      "name": "OwnershipTransferred",
      "type": "event"
    },
    {
      "inputs": [
        {
          "internalType": "uint256",
          "name": "",
          "type": "uint256"
        }
      ],
      "name": "blueprints",
      "outputs": [
        {
          "internalType": "bytes",
          "name": "",
          "type": "bytes"
        }
      ],
      "stateMutability": "view",
      "type": "function"
    },
    {
      "inputs": [],
      "name": "chocomintERC721",
      "outputs": [
        {
          "internalType": "contract IChocoMintERC721",
          "name": "",
          "type": "address"
        }
      ],
      "stateMutability": "view",
      "type": "function"
    },
    {
      "inputs": [],
      "name": "imx",
      "outputs": [
        {
          "internalType": "address",
          "name": "",
          "type": "address"
        }
      ],
      "stateMutability": "view",
      "type": "function"
    },
    {
      "inputs": [
        {
          "internalType": "address",
          "name": "user",
          "type": "address"
        },
        {
          "internalType": "uint256",
          "name": "quantity",
          "type": "uint256"
        },
        {
          "internalType": "bytes",
          "name": "mintingBlob",
          "type": "bytes"
        }
      ],
      "name": "mintFor",
      "outputs": [],
      "stateMutability": "nonpayable",
      "type": "function"
    },
    {
      "inputs": [],
      "name": "owner",
      "outputs": [
        {
          "internalType": "address",
          "name": "",
          "type": "address"
        }
      ],
      "stateMutability": "view",
      "type": "function"
    },
    {
      "inputs": [],
      "name": "renounceOwnership",
      "outputs": [],
      "stateMutability": "nonpayable",
      "type": "function"
    },
    {
      "inputs": [
        {
          "internalType": "address",
          "name": "newOwner",
          "type": "address"
        }
      ],
      "name": "transferOwnership",
      "outputs": [],
      "stateMutability": "nonpayable",
      "type": "function"
    }
  ],
  "transactionHash": "0x67bb2e5f187717281699396bcdeaaaf4fa4fa19c86917408c2ac6a81138d3bb7",
  "args": [
    "0x8Aa38d7cf949BD5111DbcB8fC55f0E50d178a385",
    "0x0730Ad49738206C0f5fdfB1C1f4448Ec9D2edb07",
    "0x4527be8f31e2ebfbef4fcaddb5a17447b27d2aef"
  ],
  "numDeployments": 2,
  "solcInputHash": "c4ddf3d6f666b550279a9610b45f64ea",
  "bytecode": "0x60806040523480156200001157600080fd5b50604051620019843803806200198483398181016040528101906200003791906200038c565b8181620000596200004d6200016a60201b60201c565b6200017260201b60201c565b80600160006101000a81548173ffffffffffffffffffffffffffffffffffffffff021916908373ffffffffffffffffffffffffffffffffffffffff160217905550600073ffffffffffffffffffffffffffffffffffffffff168273ffffffffffffffffffffffffffffffffffffffff1614156200010d576040517f08c379a0000000000000000000000000000000000000000000000000000000008152600401620001049062000479565b60405180910390fd5b6200011e826200023660201b60201c565b505082600360006101000a81548173ffffffffffffffffffffffffffffffffffffffff021916908373ffffffffffffffffffffffffffffffffffffffff160217905550505050620005bd565b600033905090565b60008060009054906101000a900473ffffffffffffffffffffffffffffffffffffffff169050816000806101000a81548173ffffffffffffffffffffffffffffffffffffffff021916908373ffffffffffffffffffffffffffffffffffffffff1602179055508173ffffffffffffffffffffffffffffffffffffffff168173ffffffffffffffffffffffffffffffffffffffff167f8be0079c531659141344cd1fd0a4f28419497f9722a3daafe3b4186f6b6457e060405160405180910390a35050565b620002466200016a60201b60201c565b73ffffffffffffffffffffffffffffffffffffffff166200026c6200034c60201b60201c565b73ffffffffffffffffffffffffffffffffffffffff1614620002c5576040517f08c379a0000000000000000000000000000000000000000000000000000000008152600401620002bc906200049b565b60405180910390fd5b600073ffffffffffffffffffffffffffffffffffffffff168173ffffffffffffffffffffffffffffffffffffffff16141562000338576040517f08c379a00000000000000000000000000000000000000000000000000000000081526004016200032f9062000457565b60405180910390fd5b62000349816200017260201b60201c565b50565b60008060009054906101000a900473ffffffffffffffffffffffffffffffffffffffff16905090565b6000815190506200038681620005a3565b92915050565b600080600060608486031215620003a257600080fd5b6000620003b28682870162000375565b9350506020620003c58682870162000375565b9250506040620003d88682870162000375565b9150509250925092565b6000620003f1602683620004bd565b9150620003fe8262000502565b604082019050919050565b600062000418601783620004bd565b9150620004258262000551565b602082019050919050565b60006200043f602083620004bd565b91506200044c826200057a565b602082019050919050565b600060208201905081810360008301526200047281620003e2565b9050919050565b60006020820190508181036000830152620004948162000409565b9050919050565b60006020820190508181036000830152620004b68162000430565b9050919050565b600082825260208201905092915050565b6000620004db82620004e2565b9050919050565b600073ffffffffffffffffffffffffffffffffffffffff82169050919050565b7f4f776e61626c653a206e6577206f776e657220697320746865207a65726f206160008201527f6464726573730000000000000000000000000000000000000000000000000000602082015250565b7f4f776e6572206d757374206e6f7420626520656d707479000000000000000000600082015250565b7f4f776e61626c653a2063616c6c6572206973206e6f7420746865206f776e6572600082015250565b620005ae81620004ce565b8114620005ba57600080fd5b50565b6113b780620005cd6000396000f3fe608060405234801561001057600080fd5b506004361061007d5760003560e01c8063715018a61161005b578063715018a6146100ec5780638da5cb5b146100f65780639cf0772d14610114578063f2fde38b146101325761007d565b80630f08025f1461008257806319ee6e3f146100a057806366bf33be146100bc575b600080fd5b61008a61014e565b6040516100979190610dd4565b60405180910390f35b6100ba60048036038101906100b59190610c07565b610174565b005b6100d660048036038101906100d19190610c73565b61030b565b6040516100e39190610e2d565b60405180910390f35b6100f46103ab565b005b6100fe610433565b60405161010b9190610dd4565b60405180910390f35b61011c61045c565b6040516101299190610e4f565b60405180910390f35b61014c60048036038101906101479190610bde565b610482565b005b600160009054906101000a900473ffffffffffffffffffffffffffffffffffffffff1681565b600160009054906101000a900473ffffffffffffffffffffffffffffffffffffffff1673ffffffffffffffffffffffffffffffffffffffff163373ffffffffffffffffffffffffffffffffffffffff16148061020257506101d3610433565b73ffffffffffffffffffffffffffffffffffffffff163373ffffffffffffffffffffffffffffffffffffffff16145b610241576040517f08c379a000000000000000000000000000000000000000000000000000000000815260040161023890610f0a565b60405180910390fd5b60018314610284576040517f08c379a000000000000000000000000000000000000000000000000000000000815260040161027b90610eaa565b60405180910390fd5b600080610291848461057a565b915091506102a086838361078f565b806002600084815260200190815260200160002090805190602001906102c7929190610ac7565b507f31e594f6b36b98ec520a91cbbba7b8724b1cec27393f86d8f0f6aa6084db0aaf8683836040516102fb93929190610def565b60405180910390a1505050505050565b6002602052806000526040600020600091509050805461032a90611101565b80601f016020809104026020016040519081016040528092919081815260200182805461035690611101565b80156103a35780601f10610378576101008083540402835291602001916103a3565b820191906000526020600020905b81548152906001019060200180831161038657829003601f168201915b505050505081565b6103b3610795565b73ffffffffffffffffffffffffffffffffffffffff166103d1610433565b73ffffffffffffffffffffffffffffffffffffffff1614610427576040517f08c379a000000000000000000000000000000000000000000000000000000000815260040161041e90610eca565b60405180910390fd5b610431600061079d565b565b60008060009054906101000a900473ffffffffffffffffffffffffffffffffffffffff16905090565b600360009054906101000a900473ffffffffffffffffffffffffffffffffffffffff1681565b61048a610795565b73ffffffffffffffffffffffffffffffffffffffff166104a8610433565b73ffffffffffffffffffffffffffffffffffffffff16146104fe576040517f08c379a00000000000000000000000000000000000000000000000000000000081526004016104f590610eca565b60405180910390fd5b600073ffffffffffffffffffffffffffffffffffffffff168173ffffffffffffffffffffffffffffffffffffffff16141561056e576040517f08c379a000000000000000000000000000000000000000000000000000000000815260040161056590610e8a565b60405180910390fd5b6105778161079d565b50565b60006060600061060585858080601f016020809104026020016040519081016040528093929190818152602001838380828437600081840152601f19601f820116905080830192505050505050506040518060400160405280600181526020017f3a000000000000000000000000000000000000000000000000000000000000008152506000610861565b9050600081121561064b576040517f08c379a000000000000000000000000000000000000000000000000000000000815260040161064290610eea565b60405180910390fd5b60006106b78686600190600186610662919061103a565b9261066f93929190610f57565b8080601f016020809104026020016040519081016040528093929190818152602001838380828437600081840152601f19601f820116905080830192505050505050506109cb565b90506000600383888890506106cc919061103a565b6106d6919061103a565b905060008114156106fe57816040518060200160405280600081525094509450505050610788565b36600088886002876107109190610f8a565b9060018c8c9050610721919061103a565b9261072e93929190610f57565b9150915083828281818080601f016020809104026020016040519081016040528093929190818152602001838380828437600081840152601f19601f82011690508083019250505050505050905090509650965050505050505b9250929050565b50505050565b600033905090565b60008060009054906101000a900473ffffffffffffffffffffffffffffffffffffffff169050816000806101000a81548173ffffffffffffffffffffffffffffffffffffffff021916908373ffffffffffffffffffffffffffffffffffffffff1602179055508173ffffffffffffffffffffffffffffffffffffffff168173ffffffffffffffffffffffffffffffffffffffff167f8be0079c531659141344cd1fd0a4f28419497f9722a3daafe3b4186f6b6457e060405160405180910390a35050565b600080839050600181511461089f577f4e487b7100000000000000000000000000000000000000000000000000000000600052600160045260246000fd5b60008390505b855181101561099e57816000815181106108e8577f4e487b7100000000000000000000000000000000000000000000000000000000600052603260045260246000fd5b602001015160f81c60f81b7effffffffffffffffffffffffffffffffffffffffffffffffffffffffffffff191686828151811061094e577f4e487b7100000000000000000000000000000000000000000000000000000000600052603260045260246000fd5b602001015160f81c60f81b7effffffffffffffffffffffffffffffffffffffffffffffffffffffffffffff1916141561098b5780925050506109c4565b808061099690611133565b9150506108a5565b507fffffffffffffffffffffffffffffffffffffffffffffffffffffffffffffffff9150505b9392505050565b6000806000905060005b8351811015610abd576000848281518110610a19577f4e487b7100000000000000000000000000000000000000000000000000000000600052603260045260246000fd5b602001015160f81c60f81b60f81c60ff16905060308110158015610a3e575060398111155b15610a6e57603081610a50919061103a565b600a84610a5d9190610fe0565b610a679190610f8a565b9250610aa9565b6040517f08c379a0000000000000000000000000000000000000000000000000000000008152600401610aa090610e6a565b60405180910390fd5b508080610ab590611133565b9150506109d5565b5080915050919050565b828054610ad390611101565b90600052602060002090601f016020900481019282610af55760008555610b3c565b82601f10610b0e57805160ff1916838001178555610b3c565b82800160010185558215610b3c579182015b82811115610b3b578251825591602001919060010190610b20565b5b509050610b499190610b4d565b5090565b5b80821115610b66576000816000905550600101610b4e565b5090565b600081359050610b7981611353565b92915050565b60008083601f840112610b9157600080fd5b8235905067ffffffffffffffff811115610baa57600080fd5b602083019150836001820283011115610bc257600080fd5b9250929050565b600081359050610bd88161136a565b92915050565b600060208284031215610bf057600080fd5b6000610bfe84828501610b6a565b91505092915050565b60008060008060608587031215610c1d57600080fd5b6000610c2b87828801610b6a565b9450506020610c3c87828801610bc9565b935050604085013567ffffffffffffffff811115610c5957600080fd5b610c6587828801610b7f565b925092505092959194509250565b600060208284031215610c8557600080fd5b6000610c9384828501610bc9565b91505092915050565b610ca58161106e565b82525050565b6000610cb682610f2a565b610cc08185610f35565b9350610cd08185602086016110ce565b610cd9816111da565b840191505092915050565b610ced816110aa565b82525050565b6000610d00602383610f46565b9150610d0b826111eb565b604082019050919050565b6000610d23602683610f46565b9150610d2e8261123a565b604082019050919050565b6000610d46601a83610f46565b9150610d5182611289565b602082019050919050565b6000610d69602083610f46565b9150610d74826112b2565b602082019050919050565b6000610d8c601483610f46565b9150610d97826112db565b602082019050919050565b6000610daf602b83610f46565b9150610dba82611304565b604082019050919050565b610dce816110a0565b82525050565b6000602082019050610de96000830184610c9c565b92915050565b6000606082019050610e046000830186610c9c565b610e116020830185610dc5565b8181036040830152610e238184610cab565b9050949350505050565b60006020820190508181036000830152610e478184610cab565b905092915050565b6000602082019050610e646000830184610ce4565b92915050565b60006020820190508181036000830152610e8381610cf3565b9050919050565b60006020820190508181036000830152610ea381610d16565b9050919050565b60006020820190508181036000830152610ec381610d39565b9050919050565b60006020820190508181036000830152610ee381610d5c565b9050919050565b60006020820190508181036000830152610f0381610d7f565b9050919050565b60006020820190508181036000830152610f2381610da2565b9050919050565b600081519050919050565b600082825260208201905092915050565b600082825260208201905092915050565b60008085851115610f6757600080fd5b83861115610f7457600080fd5b6001850283019150848603905094509492505050565b6000610f95826110a0565b9150610fa0836110a0565b9250827fffffffffffffffffffffffffffffffffffffffffffffffffffffffffffffffff03821115610fd557610fd461117c565b5b828201905092915050565b6000610feb826110a0565b9150610ff6836110a0565b9250817fffffffffffffffffffffffffffffffffffffffffffffffffffffffffffffffff048311821515161561102f5761102e61117c565b5b828202905092915050565b6000611045826110a0565b9150611050836110a0565b9250828210156110635761106261117c565b5b828203905092915050565b600061107982611080565b9050919050565b600073ffffffffffffffffffffffffffffffffffffffff82169050919050565b6000819050919050565b60006110b5826110bc565b9050919050565b60006110c782611080565b9050919050565b60005b838110156110ec5780820151818401526020810190506110d1565b838111156110fb576000848401525b50505050565b6000600282049050600182168061111957607f821691505b6020821081141561112d5761112c6111ab565b5b50919050565b600061113e826110a0565b91507fffffffffffffffffffffffffffffffffffffffffffffffffffffffffffffffff8214156111715761117061117c565b5b600182019050919050565b7f4e487b7100000000000000000000000000000000000000000000000000000000600052601160045260246000fd5b7f4e487b7100000000000000000000000000000000000000000000000000000000600052602260045260246000fd5b6000601f19601f8301169050919050565b7f696e76616c696420696e7075742c206f6e6c79206e756d6265727320616c6c6f60008201527f7765640000000000000000000000000000000000000000000000000000000000602082015250565b7f4f776e61626c653a206e6577206f776e657220697320746865207a65726f206160008201527f6464726573730000000000000000000000000000000000000000000000000000602082015250565b7f4d696e7461626c653a20696e76616c6964207175616e74697479000000000000600082015250565b7f4f776e61626c653a2063616c6c6572206973206e6f7420746865206f776e6572600082015250565b7f536570617261746f72206d757374206578697374000000000000000000000000600082015250565b7f46756e6374696f6e2063616e206f6e6c792062652063616c6c6564206279206f60008201527f776e6572206f7220494d58000000000000000000000000000000000000000000602082015250565b61135c8161106e565b811461136757600080fd5b50565b611373816110a0565b811461137e57600080fd5b5056fea26469706673582212205d49b184d83d013066da86308f3e707461803a1aaae60f78ba539bc5407f0f6464736f6c63430008040033",
  "devdoc": {
    "kind": "dev",
    "methods": {
      "owner()": {
        "details": "Returns the address of the current owner."
      },
      "renounceOwnership()": {
        "details": "Leaves the contract without owner. It will not be possible to call `onlyOwner` functions anymore. Can only be called by the current owner. NOTE: Renouncing ownership will leave the contract without an owner, thereby removing any functionality that is only available to the owner."
      },
      "transferOwnership(address)": {
        "details": "Transfers ownership of the contract to a new account (`newOwner`). Can only be called by the current owner."
      }
    },
    "version": 1
  },
  "userdoc": {
    "kind": "user",
    "methods": {},
    "version": 1
  },
  "storageLayout": {
    "storage": [
      {
        "astId": 490,
        "contract": "contracts/IMXMintableWrapper.sol:IMXMintableWrapper",
        "label": "_owner",
        "offset": 0,
        "slot": "0",
        "type": "t_address"
      },
      {
        "astId": 22,
        "contract": "contracts/IMXMintableWrapper.sol:IMXMintableWrapper",
        "label": "imx",
        "offset": 0,
        "slot": "1",
        "type": "t_address"
      },
      {
        "astId": 26,
        "contract": "contracts/IMXMintableWrapper.sol:IMXMintableWrapper",
        "label": "blueprints",
        "offset": 0,
        "slot": "2",
        "type": "t_mapping(t_uint256,t_bytes_storage)"
      },
      {
        "astId": 2147,
        "contract": "contracts/IMXMintableWrapper.sol:IMXMintableWrapper",
        "label": "chocomintERC721",
        "offset": 0,
        "slot": "3",
        "type": "t_contract(IChocoMintERC721)2204"
      }
    ],
    "types": {
      "t_address": {
        "encoding": "inplace",
        "label": "address",
        "numberOfBytes": "20"
      },
      "t_bytes_storage": {
        "encoding": "bytes",
        "label": "bytes",
        "numberOfBytes": "32"
      },
      "t_contract(IChocoMintERC721)2204": {
        "encoding": "inplace",
        "label": "contract IChocoMintERC721",
        "numberOfBytes": "20"
      },
      "t_mapping(t_uint256,t_bytes_storage)": {
        "encoding": "mapping",
        "key": "t_uint256",
        "label": "mapping(uint256 => bytes)",
        "numberOfBytes": "32",
        "value": "t_bytes_storage"
      },
      "t_uint256": {
        "encoding": "inplace",
        "label": "uint256",
        "numberOfBytes": "32"
      }
    }
  }
}